{
  "_format": "hh-sol-artifact-1",
  "contractName": "TokenSample",
  "sourceName": "contracts/TokenSample.sol",
  "abi": [
    {
      "inputs": [
        {
          "internalType": "uint256",
          "name": "total",
          "type": "uint256"
        }
      ],
      "stateMutability": "nonpayable",
      "type": "constructor"
    },
    {
      "anonymous": false,
      "inputs": [
        {
          "indexed": true,
          "internalType": "address",
          "name": "tokenOwner",
          "type": "address"
        },
        {
          "indexed": true,
          "internalType": "address",
          "name": "spender",
          "type": "address"
        },
        {
          "indexed": false,
          "internalType": "uint256",
          "name": "tokens",
          "type": "uint256"
        }
      ],
      "name": "Approval",
      "type": "event"
    },
    {
      "anonymous": false,
      "inputs": [
        {
          "indexed": true,
          "internalType": "address",
          "name": "from",
          "type": "address"
        },
        {
          "indexed": true,
          "internalType": "address",
          "name": "to",
          "type": "address"
        },
        {
          "indexed": false,
          "internalType": "uint256",
          "name": "tokens",
          "type": "uint256"
        }
      ],
      "name": "Transfer",
      "type": "event"
    },
    {
      "inputs": [
        {
          "internalType": "address",
          "name": "_owner",
          "type": "address"
        },
        {
          "internalType": "address",
          "name": "_spender",
          "type": "address"
        }
      ],
      "name": "allowance",
      "outputs": [
        {
          "internalType": "uint256",
          "name": "",
          "type": "uint256"
        }
      ],
      "stateMutability": "view",
      "type": "function"
    },
    {
      "inputs": [
        {
          "internalType": "address",
          "name": "_spender",
          "type": "address"
        },
        {
          "internalType": "uint256",
          "name": "_value",
          "type": "uint256"
        }
      ],
      "name": "approve",
      "outputs": [
        {
          "internalType": "bool",
          "name": "",
          "type": "bool"
        }
      ],
      "stateMutability": "nonpayable",
      "type": "function"
    },
    {
      "inputs": [
        {
          "internalType": "address",
          "name": "_owner",
          "type": "address"
        }
      ],
      "name": "balanceOf",
      "outputs": [
        {
          "internalType": "uint256",
          "name": "",
          "type": "uint256"
        }
      ],
      "stateMutability": "view",
      "type": "function"
    },
    {
      "inputs": [],
      "name": "decimals",
      "outputs": [
        {
          "internalType": "uint8",
          "name": "",
          "type": "uint8"
        }
      ],
      "stateMutability": "view",
      "type": "function"
    },
    {
      "inputs": [
        {
          "internalType": "uint256",
          "name": "_value",
          "type": "uint256"
        }
      ],
      "name": "getToken",
      "outputs": [
        {
          "internalType": "bool",
          "name": "",
          "type": "bool"
        }
      ],
      "stateMutability": "nonpayable",
      "type": "function"
    },
    {
      "inputs": [],
      "name": "getTokenName",
      "outputs": [
        {
          "internalType": "string",
          "name": "",
          "type": "string"
        }
      ],
      "stateMutability": "pure",
      "type": "function"
    },
    {
      "inputs": [],
      "name": "getTokenSymbol",
      "outputs": [
        {
          "internalType": "string",
          "name": "",
          "type": "string"
        }
      ],
      "stateMutability": "pure",
      "type": "function"
    },
    {
      "inputs": [],
      "name": "name",
      "outputs": [
        {
          "internalType": "string",
          "name": "",
          "type": "string"
        }
      ],
      "stateMutability": "view",
      "type": "function"
    },
    {
      "inputs": [],
      "name": "symbol",
      "outputs": [
        {
          "internalType": "string",
          "name": "",
          "type": "string"
        }
      ],
      "stateMutability": "view",
      "type": "function"
    },
    {
      "inputs": [],
      "name": "totalSupply",
      "outputs": [
        {
          "internalType": "uint256",
          "name": "",
          "type": "uint256"
        }
      ],
      "stateMutability": "view",
      "type": "function"
    },
    {
      "inputs": [
        {
          "internalType": "address",
          "name": "_to",
          "type": "address"
        },
        {
          "internalType": "uint256",
          "name": "_value",
          "type": "uint256"
        }
      ],
      "name": "transfer",
      "outputs": [
        {
          "internalType": "bool",
          "name": "",
          "type": "bool"
        }
      ],
      "stateMutability": "nonpayable",
      "type": "function"
    },
    {
      "inputs": [
        {
          "internalType": "address",
          "name": "_from",
          "type": "address"
        },
        {
          "internalType": "address",
          "name": "_to",
          "type": "address"
        },
        {
          "internalType": "uint256",
          "name": "_value",
          "type": "uint256"
        }
      ],
      "name": "transferFrom",
      "outputs": [
        {
          "internalType": "bool",
          "name": "",
          "type": "bool"
        }
      ],
      "stateMutability": "nonpayable",
      "type": "function"
    }
  ],
  "bytecode": "0x60806040523480156200001157600080fd5b50604051620016dd380380620016dd8339818101604052810190620000379190620001fd565b80600181905550336000806101000a81548173ffffffffffffffffffffffffffffffffffffffff021916908373ffffffffffffffffffffffffffffffffffffffff160217905550600154600260003373ffffffffffffffffffffffffffffffffffffffff1673ffffffffffffffffffffffffffffffffffffffff16815260200190815260200160002081905550620001106040518060400160405280601e81526020017f4465706c6f7965642c20746f74616c20746f6b656e20737570706c793a200000815250826200011760201b62000c6c1760201c565b5062000336565b620001b98282604051602401620001309291906200027b565b6040516020818303038152906040527f9710a9d0000000000000000000000000000000000000000000000000000000007bffffffffffffffffffffffffffffffffffffffffffffffffffffffff19166020820180517bffffffffffffffffffffffffffffffffffffffffffffffffffffffff8381831617835250505050620001bd60201b60201c565b5050565b60008151905060006a636f6e736f6c652e6c6f679050602083016000808483855afa5050505050565b600081519050620001f7816200031c565b92915050565b6000602082840312156200021057600080fd5b60006200022084828501620001e6565b91505092915050565b60006200023682620002af565b620002428185620002ba565b935062000254818560208601620002d5565b6200025f816200030b565b840191505092915050565b6200027581620002cb565b82525050565b6000604082019050818103600083015262000297818562000229565b9050620002a860208301846200026a565b9392505050565b600081519050919050565b600082825260208201905092915050565b6000819050919050565b60005b83811015620002f5578082015181840152602081019050620002d8565b8381111562000305576000848401525b50505050565b6000601f19601f8301169050919050565b6200032781620002cb565b81146200033357600080fd5b50565b61139780620003466000396000f3fe608060405234801561001057600080fd5b50600436106100b45760003560e01c8063862b092b11610071578063862b092b146101a357806395d89b41146101c1578063a9059cbb146101df578063dd62ed3e1461020f578063e4b50cb81461023f578063f1850af81461026f576100b4565b806306fdde03146100b9578063095ea7b3146100d757806318160ddd1461010757806323b872dd14610125578063313ce5671461015557806370a0823114610173575b600080fd5b6100c161028d565b6040516100ce9190610f81565b60405180910390f35b6100f160048036038101906100ec9190610e0f565b6102c6565b6040516100fe9190610f66565b60405180910390f35b61010f6103b8565b60405161011c9190611053565b60405180910390f35b61013f600480360381019061013a9190610dc0565b6103c2565b60405161014c9190610f66565b60405180910390f35b61015d610799565b60405161016a919061106e565b60405180910390f35b61018d60048036038101906101889190610d5b565b61079e565b60405161019a9190611053565b60405180910390f35b6101ab6107e7565b6040516101b89190610f81565b60405180910390f35b6101c9610824565b6040516101d69190610f81565b60405180910390f35b6101f960048036038101906101f49190610e0f565b61085d565b6040516102069190610f66565b60405180910390f35b61022960048036038101906102249190610d84565b610a6c565b6040516102369190611053565b60405180910390f35b61025960048036038101906102549190610e4b565b610af3565b6040516102669190610f66565b60405180910390f35b610277610c2f565b6040516102849190610f81565b60405180910390f35b6040518060400160405280601281526020017f546f6b656e2073616d706c65204552433230000000000000000000000000000081525081565b600081600360003373ffffffffffffffffffffffffffffffffffffffff1673ffffffffffffffffffffffffffffffffffffffff16815260200190815260200160002060008573ffffffffffffffffffffffffffffffffffffffff1673ffffffffffffffffffffffffffffffffffffffff168152602001908152602001600020819055508273ffffffffffffffffffffffffffffffffffffffff163373ffffffffffffffffffffffffffffffffffffffff167f8c5be1e5ebec7d5bd14f71427d1e84f3dd0314c0f7b2291e5b200ac8c7c3b925846040516103a69190611053565b60405180910390a36001905092915050565b6000600154905090565b6000600260008573ffffffffffffffffffffffffffffffffffffffff1673ffffffffffffffffffffffffffffffffffffffff16815260200190815260200160002054821115610446576040517f08c379a000000000000000000000000000000000000000000000000000000000815260040161043d90610fd3565b60405180910390fd5b600360008573ffffffffffffffffffffffffffffffffffffffff1673ffffffffffffffffffffffffffffffffffffffff16815260200190815260200160002060008473ffffffffffffffffffffffffffffffffffffffff1673ffffffffffffffffffffffffffffffffffffffff16815260200190815260200160002054821115610505576040517f08c379a00000000000000000000000000000000000000000000000000000000081526004016104fc90611033565b60405180910390fd5b81600260008673ffffffffffffffffffffffffffffffffffffffff1673ffffffffffffffffffffffffffffffffffffffff1681526020019081526020016000205461055091906110fb565b600260008673ffffffffffffffffffffffffffffffffffffffff1673ffffffffffffffffffffffffffffffffffffffff1681526020019081526020016000208190555081600260008573ffffffffffffffffffffffffffffffffffffffff1673ffffffffffffffffffffffffffffffffffffffff168152602001908152602001600020546105de91906110a5565b600260008573ffffffffffffffffffffffffffffffffffffffff1673ffffffffffffffffffffffffffffffffffffffff1681526020019081526020016000208190555081600360008673ffffffffffffffffffffffffffffffffffffffff1673ffffffffffffffffffffffffffffffffffffffff16815260200190815260200160002060008573ffffffffffffffffffffffffffffffffffffffff1673ffffffffffffffffffffffffffffffffffffffff168152602001908152602001600020546106a991906110fb565b600360008673ffffffffffffffffffffffffffffffffffffffff1673ffffffffffffffffffffffffffffffffffffffff16815260200190815260200160002060008573ffffffffffffffffffffffffffffffffffffffff1673ffffffffffffffffffffffffffffffffffffffff168152602001908152602001600020819055508273ffffffffffffffffffffffffffffffffffffffff168473ffffffffffffffffffffffffffffffffffffffff167fddf252ad1be2c89b69c2b068fc378daa952ba7f163c4a11628f55a4df523b3ef846040516107869190611053565b60405180910390a3600190509392505050565b601281565b6000600260008373ffffffffffffffffffffffffffffffffffffffff1673ffffffffffffffffffffffffffffffffffffffff168152602001908152602001600020549050919050565b60606040518060400160405280601281526020017f546f6b656e2073616d706c652045524332300000000000000000000000000000815250905090565b6040518060400160405280600381526020017f545343000000000000000000000000000000000000000000000000000000000081525081565b6000600260003373ffffffffffffffffffffffffffffffffffffffff1673ffffffffffffffffffffffffffffffffffffffff168152602001908152602001600020548211156108e1576040517f08c379a00000000000000000000000000000000000000000000000000000000081526004016108d890611013565b60405180910390fd5b81600260003373ffffffffffffffffffffffffffffffffffffffff1673ffffffffffffffffffffffffffffffffffffffff1681526020019081526020016000205461092c91906110fb565b600260003373ffffffffffffffffffffffffffffffffffffffff1673ffffffffffffffffffffffffffffffffffffffff1681526020019081526020016000208190555081600260008573ffffffffffffffffffffffffffffffffffffffff1673ffffffffffffffffffffffffffffffffffffffff168152602001908152602001600020546109ba91906110a5565b600260008573ffffffffffffffffffffffffffffffffffffffff1673ffffffffffffffffffffffffffffffffffffffff168152602001908152602001600020819055508273ffffffffffffffffffffffffffffffffffffffff163373ffffffffffffffffffffffffffffffffffffffff167fddf252ad1be2c89b69c2b068fc378daa952ba7f163c4a11628f55a4df523b3ef84604051610a5a9190611053565b60405180910390a36001905092915050565b6000600360008473ffffffffffffffffffffffffffffffffffffffff1673ffffffffffffffffffffffffffffffffffffffff16815260200190815260200160002060008373ffffffffffffffffffffffffffffffffffffffff1673ffffffffffffffffffffffffffffffffffffffff16815260200190815260200160002054905092915050565b6000600260008060009054906101000a900473ffffffffffffffffffffffffffffffffffffffff1673ffffffffffffffffffffffffffffffffffffffff1673ffffffffffffffffffffffffffffffffffffffff16815260200190815260200160002054821115610b98576040517f08c379a0000000000000000000000000000000000000000000000000000000008152600401610b8f90610ff3565b60405180910390fd5b81600260003373ffffffffffffffffffffffffffffffffffffffff1673ffffffffffffffffffffffffffffffffffffffff16815260200190815260200160002054610be391906110a5565b600260003373ffffffffffffffffffffffffffffffffffffffff1673ffffffffffffffffffffffffffffffffffffffff1681526020019081526020016000208190555060019050919050565b60606040518060400160405280600381526020017f5453430000000000000000000000000000000000000000000000000000000000815250905090565b610d048282604051602401610c82929190610fa3565b6040516020818303038152906040527f9710a9d0000000000000000000000000000000000000000000000000000000007bffffffffffffffffffffffffffffffffffffffffffffffffffffffff19166020820180517bffffffffffffffffffffffffffffffffffffffffffffffffffffffff8381831617835250505050610d08565b5050565b60008151905060006a636f6e736f6c652e6c6f679050602083016000808483855afa5050505050565b600081359050610d4081611333565b92915050565b600081359050610d558161134a565b92915050565b600060208284031215610d6d57600080fd5b6000610d7b84828501610d31565b91505092915050565b60008060408385031215610d9757600080fd5b6000610da585828601610d31565b9250506020610db685828601610d31565b9150509250929050565b600080600060608486031215610dd557600080fd5b6000610de386828701610d31565b9350506020610df486828701610d31565b9250506040610e0586828701610d46565b9150509250925092565b60008060408385031215610e2257600080fd5b6000610e3085828601610d31565b9250506020610e4185828601610d46565b9150509250929050565b600060208284031215610e5d57600080fd5b6000610e6b84828501610d46565b91505092915050565b610e7d81611141565b82525050565b6000610e8e82611089565b610e988185611094565b9350610ea8818560208601611184565b610eb1816111e6565b840191505092915050565b6000610ec9602b83611094565b9150610ed4826111f7565b604082019050919050565b6000610eec602483611094565b9150610ef782611246565b604082019050919050565b6000610f0f602883611094565b9150610f1a82611295565b604082019050919050565b6000610f32602883611094565b9150610f3d826112e4565b604082019050919050565b610f518161116d565b82525050565b610f6081611177565b82525050565b6000602082019050610f7b6000830184610e74565b92915050565b60006020820190508181036000830152610f9b8184610e83565b905092915050565b60006040820190508181036000830152610fbd8185610e83565b9050610fcc6020830184610f48565b9392505050565b60006020820190508181036000830152610fec81610ebc565b9050919050565b6000602082019050818103600083015261100c81610edf565b9050919050565b6000602082019050818103600083015261102c81610f02565b9050919050565b6000602082019050818103600083015261104c81610f25565b9050919050565b60006020820190506110686000830184610f48565b92915050565b60006020820190506110836000830184610f57565b92915050565b600081519050919050565b600082825260208201905092915050565b60006110b08261116d565b91506110bb8361116d565b9250827fffffffffffffffffffffffffffffffffffffffffffffffffffffffffffffffff038211156110f0576110ef6111b7565b5b828201905092915050565b60006111068261116d565b91506111118361116d565b925082821015611124576111236111b7565b5b828203905092915050565b600061113a8261114d565b9050919050565b60008115159050919050565b600073ffffffffffffffffffffffffffffffffffffffff82169050919050565b6000819050919050565b600060ff82169050919050565b60005b838110156111a2578082015181840152602081019050611187565b838111156111b1576000848401525b50505050565b7f4e487b7100000000000000000000000000000000000000000000000000000000600052601160045260246000fd5b6000601f19601f8301169050919050565b7f4f776e6572206d75737420686176652074686520746f6b656e732076616c756560008201527f206f6e206163636f756e74000000000000000000000000000000000000000000602082015250565b7f436f6e7472616374206f776e6572206d7573742068617665207468697320746f60008201527f6b656e7300000000000000000000000000000000000000000000000000000000602082015250565b7f596f75206d7573742068617665207468697320746f6b656e73206f6e20796f7560008201527f206163636f756e74000000000000000000000000000000000000000000000000602082015250565b7f4d75737420626520616c6c6f77656420746f206d616b6520746869732074726160008201527f6e73616374696f6e000000000000000000000000000000000000000000000000602082015250565b61133c8161112f565b811461134757600080fd5b50565b6113538161116d565b811461135e57600080fd5b5056fea264697066735822122000fb98061c469556245afd9a5bab0f856a2b4c6301b3762580f8cc0b7bd9b06764736f6c63430008040033",
  "linkReferences": {},
  "deployedLinkReferences": {}
}